S0110000504F5620476C6F62652E7372656315
S11300000C9458000C9477000C9475000C947500B3
S11300100C9475000C9475000C9475000C94750088
S11300200C9475000C9475000C9475000C94DD0010
S11300300C9475000C9475000C9475000C94750068
S11300400C94C6000C9475000C9475000C94750007
S11300500C9475000C9475000C9475000C94750048
S11300600C9475000C9475004B014D014F01510126
S113007053015501570159015B015D0168016A0192
S11300806C016E01700172017401760178017A01CC
S1130090870189018B018D018F01910193019501E4
S11300A0A001A201A401A601A801AA01AC01AE010C
S11300B011241FBECFEFD8E0DEBFCDBF15E0A0E016
S11300C0B1E0E0E4F4E002C005900D92A83FB1076E
S11300D0D9F725E0A8EFB5E001C01D92AB3FB20708
S11300E0E1F70E94B0010C941E020C9400001F92D0
S11300F00F920FB60F9211242F933F934F935F9358
S11301006F937F938F939F93AF93BF938091F905E0
S11301109091FA058F31910550F126B5982F8827D3
S1130120AC01420F511D9A01A5E0B2E00E940F02FA
S1130130481B590B56954795840F951F0024880F2B
S1130140991F001C880F991F001C892F902D01975F
S1130150909389008093880016BC109285001092B9
S113016084001092F8051092FA051092F905BF91D7
S1130170AF919F918F917F916F915F914F913F913B
S11301802F910F900FBE0F901F9018951F920F92F2
S11301900FB60F9211248F939F938091F90590913C
S11301A0FA0501969093FA058093F9059F918F9132
S11301B00F900FBE0F901F9018951F920F920FB6BD
S11301C00F9211248F938091F8058F5F8093F80527
S11301D08F910F900FBE0F901F90189540988BB180
S11301E084708BB9089585B18F6385B988B18E61A8
S11301F088B9089595B59C7F95BD9FEF980F97306A
S113020018F495B5892B85BD0895811106C0E1E8E0
S1130210F0E080818C7F80830895E1E8F0E09081B4
S1130220892B8083089584B18F6384B987B18F61EA
S113023087B98BEF8AB95A9A0E94EE000E94F300A4
S1130240EEE6F0E0808181608083E1E8F0E0808187
S1130250886080838FEF90E090938900809388007A
S1130260EFE6F0E0808182608083E89A8FB780684F
S11302708FBF83E00E94FA0083E00E940501089585
S11302806130E9F490E08A309105A8F5FC01EC5C5A
S1130290FF4F0C940902289A0895299A08952A9ADE
S11302A008952B9A08952C9A08952D9A0895419AA9
S11302B00895429A0895439A0895449A089590E0BF
S11302C08A309105C0F4FC01E25CFF4F0C940902F2
S11302D028980895299808952A9808952B980895A0
S11302E02C9808952D98089541980895429808955A
S11302F043980895449808956130C9F490E0883093
S1130300910568F5FC01E85BFF4F0C940902409AE3
S113031008955F9A08955E9A08955D9A08955C9A87
S11303200895599A08955B9A0895589A089590E00B
S113033088309105A0F4FC01E05BFF4F0C940902A6
S1130340409808955F9808955E9808955D9808957B
S11303505C980895599808955B980895589808955D
S11303600E941301712C812CEE24E394F12C0F2EA6
S1130370F7E09F2EF02DA72CB82CC72CD82CDC2D01
S11303808091F80590E0FC01EE0FFF1F880F991F84
S1130390880F991F880F991FE80FF91FEC0DFD1D99
S11303A0EF5FFE4F80818093000160E08C2D0E94FE
S11303B04001C92D0A2D1B2D2091000130E0C701F9
S11303C0002E02C0880F991F0A94E2F728233923CC
S11303D0002E02C0359527950A94E2F7232B21F0CD
S11303E061E08C2F0E947C0160E08C2F0E947C01D4
S11303F00F5F1F4FC15000F761E08D2F0E94400135
S11304008FEFC81AD80A8AE0C816D10409F0B7CF0A
S1130410B4CFEE0FFF1F0590F491E02D0994A29F35
S1130420B001B39FC001A39F700D811D1124911DC4
S1130430B29F700D811D1124911D0895F894FFCF72
S1130440FFFFFFFFFFFFFFFFFFFFFFFFFFFFFFFFB8
S1130450FFFFFFFFFFFFFFFFFFFFFFFFFFFFFFFFA8
S1130460FFFFFFFFFFFFFFFFFFFFFFFFFFFFFFFF98
S1130470FFFFFFFFFFFFFFFFFFFFFFFFFFFFFFFF88
S1130480FFFFFFFFFFFFFFFFFFFFFFFFFFFFFFFF78
S1130490FFFFFFFFFFFFFFFFFFFFFFFFFFFFFFFF68
S11304A0FFFFFFFFFFFFFFFFFFFFFFFFFFFFFFFF58
S11304B0FFFFFFFFFFFFFFFFFFFFFFFFFFFFFFFF48
S11304C0FFFFFFFFFFFFFFFFFFFFFFFFFFFFFFFF38
S11304D0FFFFFFFFFFFFFFFFFFFFFFFFFFFFFFFF28
S11304E0FFFFFFFFFFFFFFFFFFFFFFFFFFFFFFFF18
S11304F0FFFFFFFFFFFFFFFFFFFFFFFFFFFFFFFF08
S1130500FFFFFFFFFFFFFFFFFFFFFFFFFFFFFFFFF7
S1130510FFFFFFFFFFFFFFFFFFFFFFFFFFFFFFFFE7
S1130520FFFFFFFFFFFFFFFFFFFFFFFFFFFFFFFFD7
S1130530FFFFFFFFFFFFFFFFFFFFFFFFFFFFFFFFC7
S1130540FFFFFFFFFFFFFFFFFFFFFFFFFFFFFFFFB7
S1130550FFFFFFFFFFFFFFFFFFFFFFFFFFFFFFFFA7
S1130560FFFFFFFFFFFFFFFFFFFFFFFFFFFFFFFF97
S1130570FFFFFFFFFFFFFFFFFFFFFFFFFFFFFFFF87
S1130580FFFFFFFFFFFFFFFFFFFFFFFFFFFFFFFF77
S1130590FFFFFFFFFFFFFFFFFFFFFFFFFFFFFFFF67
S11305A0FFFFFFFFFFFFFFFFFFFFFFFFFFFFFFFF57
S11305B0FFFFFFFFFFFFFFFFFFFFFFFFFFFFFFFF47
S11305C0FFFFFFFFFFFFFFFFFFFFFFFFFF3FFFFFF7
S11305D0FFFFFFFFFFFFFE3FFFFFFFFFFFFFFFFFE8
S11305E0FC7FFFFFFFFFFFFFFFFFF07FFFFFFFFF29
S11305F0FFFF1FFFF83FFFFFFFFFFFF807FFFE0F9E
S1130600FFFFFFFFFF8007FFFF87FFFFFFFFFF00E4
S113061007FFFE0FFFFFFFFFFF0003FFFC1FFFFFAD
S1130620FFFFFF8003FFFE01FFFFFFFFFFC007FF87
S1130630FF80FFFFFFFFFFF007FFFFF03FFFFFFF1B
S1130640FFF807FFFFF83FFFFFFFFFFF0FFFFFE08B
S11306507FFFFFFFFFFF8FFFFFC1FFFFFFFFFFFFD4
S1130660FFFFFF07FFFFFFFFFFFFFFFFFE03FFFF8B
S1130670FFFFFFFFFFFFFC00FFFFFFFFFFFFFFFF88
S1130680FE003FFFFFFFFFFFFFFFFF001FFFFFFF15
S1130690FFFFFFFFFFC01FFFFFFFFFFFFFF3FFF0A0
S11306A01FFFFFFFFFFFFFE1FFF03FFFFFFFFFFF23
S11306B0FFC0FFF8FFFFFFFFFFFFFF007FE1FFFF29
S11306C0FFFFFFFFFC007F83FFFFFFFFFFFFF8003A
S11306D07F81FFFFFFFFFFFFF0007FE07FFFFFFF51
S11306E0FFFFF8007FF03FFFFFFFFFFFFC007FF8F4
S11306F03FFFFFFFFFFFFF007FF87FFFFFFFFFFFCC
S1130700FFC0FFE0FFFFFFFFFFFFFFE1FFC1FFFFAF
S1130710FFFFFFFFFFF3FF83FFFFFFFFFFFFFFFF6D
S1130720FF87FFFFFFFFFFFFFFFFFFC1FFFFFFFF8B
S1130730FFFFFFFFFFE07FFFFFFFFFFFDFFFFFF88B
S11307403FFFFFFFFFFFC7FFFFFC3FFFFFFFFFFF70
S1130750C3FFFFF87FFFFFFFFFFFC1FFFFF0FFFFB5
S1130760FFFFFFFF81FFFFC3FFFFFFFFFFFF00FF4E
S1130770FF83FFFFFFFFFFFF00FFFF0FFFFFFFFFF0
S1130780FFFE00FFFF0FFFFFFFFFFFFC01FFFFC3A2
S1130790FFFFFFFFFFFC03FFFFE1FFFFFFFFFFFE83
S11307A003FFFFF9FFFFFFFFFFFFFFFFFFF3FFFF63
S11307B0FFFFFFFFFFFFFFE7FFFFFFFFFFFFFFFF5D
S11307C0FFFFFFFFFFFFFFFFFFFFFFFFFFFFFFFF35
S11307D0FFFFFFFFFFFFFFFFFFFFFFFFFFFFFFFF25
S11307E0FFFFFFFFFFFFFFFFFFFFFFFFFFFFFFFF15
S11307F0FFFFFFFFFFFFFFFFFFFFFFFFFFFFFFFF05
S1130800FFFFFFFFFFFFFFFFFFFFFFFFFFFFFFFFF4
S1130810FFFFFFFFFFFFFFFFFFFFFFFFFFFFFFFFE4
S1130820FFFFFFFFFFFFFFFFFFFFFFFFFFFFFFFFD4
S1130830FFFFFFFFFFFFFFFFFFFFFFFFFFFFFFFFC4
S1130840FFFFFFFFFFFFFFFFFFFFFFFFFFFFFFFFB4
S1130850FFFFFFFFFFFFFFFFFFFFFFFFFFFFFFFFA4
S1130860FFFFFFFFFFFFFFFFFFFFFFFFFFFFFFFF94
S1130870FFFFFFFFFFFFFFFFFFFFFFFFFFFFFFFF84
S1130880FFFFFFFFFFFFFFFFFFFFFFFFFFFFFFFF74
S1130890FFFFFFFFFFFFFFFFFFFFFFFFFFFFFFFF64
S11308A0FFFFFFFFFFFFFFFFFFFFFFFFFFFFFFFF54
S11308B0FFFFFFFFFFFFFFFFFFFFFFFFFFFFFFFF44
S11308C0FFFFFFFFFFFFFFFFFFFFFFFFFFFFFFFF34
S11308D0FFFFFFFFFFFFFFFFFFFFFFFFFFFFFFFF24
S11308E0FFFFFFFFFFFFFFFFFFFFFFFFFFFFFFFF14
S11308F0FFFFFFFFFFFFFFFFFFFFFFFFFFFFFFFF04
S1130900FFFFFFFFFFFFFFFFFFFFFFFFFFFFFFFFF3
S1130910FFFFFFFFFFFFFFFFFFFFFFFFFFFFFFFFE3
S1130920FFFFFFFFFFFFFFFFFFFFFFFFFFFFFFFFD3
S10B0930FFFFFFFFFFFFFF00C2
S9030000FC
